:020000040800F2
:10000000287E002089010008A5790008555B0008BA
:1000100059630008D9290008E1E800080000000041
:100020000000000000000000000000009B0100082C
:10003000152E000800000000970B0008C5DA000824
:10004000A3010008A3010008A3010008A301000800
:10005000A3010008A3010008A3010008A3010008F0
:10006000A3010008A3010008A3010008A3010008E0
:10007000A3010008A3010008A3010008A3010008D0
:10008000A3010008A3010008A3010008A3010008C0
:10009000A3010008A3010008A3010008A3010008B0
:1000A000A3010008A3010008A3010008A3010008A0
:1000B000A301000855DD0008D5DD0008A3010008F4
:1000C000A3010008A3010008A3010008A301000880
:1000D000A3010008BDE2000851E30008D9E30008CD
:1000E000A3010008A3010008A3010008000000000C
:1000F0000000000000000000000000000000000000
:1001000000000000A3010008A30100080000000097
:1001100000000000000000000000000000000000DF
:10012000A3010008A3010008A3010008A30100081F
:1001300000000000000000000000000000000000BF
:10014000000000000000000000000000A301000803
:100150000000000000000000A3010008A301000847
:10016000A30100080000000000000000A301000837
:10017000DFF810D000F056FC004800479518010841
:10018000AFF30080287E00200648804706480047DD
:10019000FEE7FEE7FEE7FEE7FEE7FEE7FEE7FEE737
:1001A000FEE7FEE705DB00087101000872B6704744
:1001B00062B67047EFF3108072B6704780F3108814
:1001C000704730BF704720BF7047B0FA80F070476B
:1001D00090FAA0F0B0FA80F0704790FAA0F0704763
:1001E0002DE9F05F0546002092469B46884606466C
:1001F000814640241BE0284641464746224600F0FF
:1002000022FB53465A46C01A914110D31146184654
:10021000224600F009FB2D1A67EB01084F462246E3
:100220000120002100F000FB17EB00094E41201EC9
:10023000A4F10104DFDC484631462A464346BDE8C6
:10024000F09F40EA01039B0703D009E008C9121F91
:1002500008C0042AFAD203E011F8013B00F8013B80
:10026000521EF9D27047D2B201E000F8012B491EAC
:10027000FBD270470022F6E710B513460A46044643
:100280001946FFF7F0FF204610BD30B505462A4657
:100290000B4612F8010B13F8014B08B1A042F8D03D
:1002A0001CB1002802D06D1CF1E7284630BD421C6D
:1002B00010F8011B0029FBD1801A704730B50546A4
:1002C0000020034600E05B1C934205D2EC5CC85C56
:1002D000201A01D1002CF6D130BD000070B50F4DB1
:1002E00000B92868002412E00A4602E09E4203D0CA
:1002F000521C1378002BF9D1DAB2224305D02BB16E
:1003000024B1002100F8011B04E00446401C0678DB
:10031000002EE9D12860204670BD0000240700208F
:1003200070B506460EF0F0FF046805460A2200216B
:10033000304600F0AAFA2C6070BDF0B480EA0102E9
:10034000D40F4200B2EB410F02D2024608461146DA
:100350004A0042D0C30DDDB2C1F3C752AD1A202D01
:1003600035DAC1F3160141F4000204B15242C5F17D
:10037000200602FA06F12A411044B3EBD05F23D0E5
:10038000C4B1012DA0EBC35009DCF0BC4FF000421A
:1003900002EAC352DBB200F5000000F0B7BA400039
:1003A00000F1807000EBC350A0F1807040EAD17082
:1003B000490009E0490841EAC071A0EBC35000F5CB
:1003C0000000400800EBC350F0BC00F096BA614258
:1003D000012202EB4101001BF6E7F0BC704781F0FF
:1003E0000041AAE780F00040A7E780EA010210B5CB
:1003F00002F00043400022D04A001FD0010E01EB62
:100400001261C0F35600C2F3560240F4000042F4F9
:100410000002A0FB022000047F39140400D0401C1D
:1004200050EA124001D44000491EC2B20C0604EB4F
:10043000D010401C4008802A02D003E0002010BDEC
:1004400020F00100002900DA0020184310BD30B46C
:1004500080EA010202F0004530F0004221F0004045
:1004600013D090B1C30DD40DC2F31601C0F3160022
:10047000E41A41F4000140F400027D34914201D3BA
:10048000641C00E04900002C02DA30BC00207047F8
:100490004FF400000023914201D3891A034340081E
:1004A0004FEA4101F7D151B1914202D14FF00041E1
:1004B00005E002D24FF0010101E06FF0010103EB12
:1004C000C450284430BC00F018BA2DE9FE4F8046D5
:1004D00081EA0300C00F0C46009021F0004123F098
:1004E0000045B8EB0200A94105D24046214690469E
:1004F0001C460B46024623F00040104347D0270D10
:10050000C7F30A00C3F30A510290401A0190402831
:100510006BDAC3F3130040F4801B0098924620B1BD
:100520000023D2EB030A63EB0B0B01985946C0F191
:100530004002504600F078F906460D4650465946AE
:10054000019A00F090F910EB08006141002487EA5D
:10055000115284EAE7731A4340D0009A62B3019AB9
:10056000012A4FEA075215DC001B61EB02014FF034
:10057000004202EA0752CDE90042001C41F5801119
:1005800032462B4600F0FFF903B0BDE8F08F40463D
:100590002146F9E7001B61EB0201001C41F58013C5
:1005A00000185B412018A2F5001747EB030140EA51
:1005B000D570B6196D4111E06D084FEA360645EA6F
:1005C000C0754FEA0752001B61EB0201001C41F5A8
:1005D000801149084FEA30000019514132462B463C
:1005E00003B0BDE8F04F00F0BFB900980122400011
:1005F0000023D0EB020263EBE073009821464FEA40
:10060000E074B8EB000061EB0401E9E783F000431C
:100610005BE781F0004158E72DE9FE4F81EA0304D2
:1006200004F0004421F0004100944FF0000B23F04F
:10063000004350EA01045ED052EA03045BD0C3F3E6
:100640000A54C1F30A552C44A4F2F3340194A0FBDC
:100650000254C1F3130141F48011C3F3130343F4B3
:10066000801301FB024400FB034E840A970A44EA0C
:10067000815447EA8357A4FB076802958D0A05FB5E
:1006800007854FEA932C04FB0C542705029D4FEA83
:10069000065847EA1637B5EB08056EEB070C870ED0
:1006A000920E47EA811742EA8312A7FB0201B6EBDA
:1006B0000B0164EB00042B0D43EA0C335E1844EB92
:1006C0001C50DA465146E7FB0201C5F313044FEA1A
:1006D0000B3343EA14534FEA0432019C43EA060306
:1006E000A4F10C040294009CCDE900B400F04BF995
:1006F00003B0BDE8F08F00200146F9E79623002201
:10070000114600F003B90EB540F2334102910021C9
:10071000CDE900110A460B4600F035F903B000BDE3
:1007200020F00040C10DC0F3160040F400007F2906
:1007300001DA00207047962903DCC1F19601C84018
:100740007047963988407047C1F30A5210B5C1F31B
:10075000130140F2FF3341F480119A4201DA002084
:1007600010BD40F233439A42A2F2334203DC5242BC
:1007700000F069F810BD904010BD00F0004230F06C
:1007800000400AD0C10D01F56071C0F3160042EAC5
:100790000151C208400711437047002001467047CD
:1007A00030B5041E71F1000404DB4FF000444042F8
:1007B00064EB0101141E73F1000405DB1C464FF0CD
:1007C0000043524263EB04038B4208BF824230BDB8
:1007D00030B5041E71F1000404DB4FF000444042C8
:1007E00064EB0101141E73F1000405DB1C464FF09D
:1007F0000043524263EB0403994208BF904230BD6C
:10080000002801DBC0F10040002901DBC1F10041FB
:1008100081427047002801DBC0F10040002901DB64
:10082000C1F1004188427047202A04DB203A00FAD7
:1008300002F1002070479140C2F1200320FA03F337
:10084000194390407047202A04DB203A21FA02F035
:100850000021704721FA02F3D040C2F120029140FA
:10086000084319467047202A06DBCB17203A41FA85
:1008700002F043EAE07306E041FA02F3D040C2F12D
:10088000200291400843194670472DE9F0479146F0
:100890000F4680460446002614F8015B2DB100F097
:1008A000D3F80068405DC007F6D12B2D02D02D2D66
:1008B00018D0641E4A463946204600F0C9F827B1D0
:1008C0003968A14201D1C7F8008071054FF00204D8
:1008D0000BD54042002803DD0EF016FD0460A00792
:1008E000BDE8F08746F48066E4E70028F8DA0EF009
:1008F0000BFD04606FF00040F2E70029A8BF7047CD
:10090000401C490008BF20F00100704710B4B0FA45
:1009100080FC00FA0CF050EA010404BF10BC7047E0
:1009200049B1CCF1200421FA04F411FA0CF118BFFA
:10093000012121430843A3EB0C01CB1D4FEA0061C9
:100940004FEA102042BF002010BC704700EBC3509C
:1009500010440029A4BF10BC7047401C490008BFC8
:1009600020F0010010BC704710B5141E73F1000494
:1009700008DA401C41F1000192185B411A4301D191
:1009800020F0010010BD2DE9F04D92469B4611B1BB
:10099000B1FA81F202E0B0FA80F220329046FFF71D
:1009A00043FF04460F4640EA0A0041EA0B01534662
:1009B0005A46084313D0114653EA010019D0C8F132
:1009C00040025046FFF73FFF05460E465046594647
:1009D0004246FFF729FF084305D0012004E02046E6
:1009E0003946BDE8F08D0020054346EAE0762C4309
:1009F00037430A986305E40AA0EB08000022FD0AC9
:100A000044EA47540A3002D500200146E9E70105CF
:100A100010196941DDE9084500196941BDE8F04D4B
:100A2000A2E70000064C074D06E0E06840F0010335
:100A300094E8070098471034AC42F6D3FFF79CFBCC
:100A4000CC380108EC3801080048704730360108FE
:100A50002DE9F05F82460078002715468B460AF1A3
:100A60000104B946302801D09DB113E014F8010B00
:100A70000127782803D0582801D045B10AE00DB1EC
:100A8000102D07D10027102514F8010B02E00825CE
:100A900000E00A250026B0460EE005FB080005FB35
:100AA00006F1012701EB10461FFA80F8B6F5803FEA
:100AB00000D3B94614F8010B294600F018F80028B5
:100AC000EBDABBF1000F05D00FB1641E00E0544615
:100AD000CBF80040B9F1000F06D00EF015FC022152
:100AE0000160C81EBDE8F09F48EA0640FAE73A28D0
:100AF00000D2303820F02002412A01D3A2F1370081
:100B0000884201D34FF0FF30704770B58C1810F851
:100B1000015B15F0070301D110F8013B2A1106D142
:100B200010F8012B03E010F8016B01F8016B5B1E5C
:100B3000F9D12B0705D40023521E0DD401F8013B37
:100B4000FAE710F8013BCB1A921C03E013F8015BA3
:100B500001F8015B521EF9D5A142D8D3002070BD27
:100B60001D484FF0FF010170002080F309881B48E9
:100B7000016881F308881A484FF08051016062B61D
:100B8000FEE717484FF080510160704714484FF05E
:100B900080510160704772B6EFF3098028B12038A8
:100BA00080E8F00F0F490968086000B50E488047DB
:100BB0005DF804EB0D480E490A78027009480D49AA
:100BC0000A680260106890E8F00F203080F309880E
:100BD0004EF0F40E62B6704722ED00E050060020A1
:100BE00004ED00E018070020B58F000896060020ED
:100BF000970600201C07002021B1826842F0010204
:100C0000826003E0826822F001028260704721B1B5
:100C1000826842F48072826003E0826822F480720B
:100C200082607047014600208A6802F004020AB11F
:100C3000012000E000207047014600208A6802F091
:100C400008020AB1012000E00020704730B50246DA
:100C50000020002350680F4C20400D790C6844EAB6
:100C600005242043506090680B4C2040D1E9025489
:100C70002C434D7944EA450420439060D06A20F427
:100C800070000C7C641EE4B2234340EA0350D0623F
:100C900030BD0000FFFEF0FFFDF7F1FDF0B50446AA
:100CA0000D4600200021092D11DDE068A5F10A069E
:100CB00006EB4607072606FA07F18843A5F10A0660
:100CC00006EB460603FA06F10843E0600CE02069F3
:100CD00005EB4507072606FA07F1884305EB4506AD
:100CE00003FA06F108432061072A0FDA606B561EEB
:100CF00006EB86071F2606FA07F18843561E06EB09
:100D0000860605FA06F10843606322E00D2A0FDA31
:100D1000206BD61F06EB86071F2606FA07F18843CD
:100D2000D61F06EB860605FA06F10843206310E09D
:100D3000E06AA2F10D0606EB86071F2606FA07F108
:100D40008843A2F10D0606EB860605FA06F1084374
:100D5000E062F0BD816841F008018160704721B117
:100D6000826842F4A002826003E0826822F4A0025A
:100D700082607047816841F0040181607047002102
:100D80000160017141718160C1600121017470478E
:100D90002DE9F04790B00746894690461E4614213B
:100DA0000BA8FFF767FA142106A8FFF763FA7C2166
:100DB0008448FFF75FFA8448807E012804D1834885
:100DC00000688049086108E08148D0F80A007D4940
:100DD00008617F48D0F80E0088677B48807E012834
:100DE00005D1022177486C3002F066F819E07948A5
:100DF0000078012805D1032172486C3002F05CF8BC
:100E00000FE0754890F817020B2805D103216D48B3
:100E10006C3002F051F804E002216A486C3002F0B4
:100E20004BF86948807E01280FD1002000F070F94E
:100E300005461DB9002010B0BDE8F087052205F178
:100E40000B0160481C300CF0FBFD6348D0F84500F6
:100E50005C49486139465B48303002F0D5F85A4861
:100E6000807E012819D100200EF0A6F9012828D192
:100E7000574890F836000106554890F8370041EA87
:100E80000041534890F8380041EA0020504991F859
:100E9000391008434B49086013E04D4890F836007C
:100EA00001064B4890F8370041EA0041484890F865
:100EB000380041EA0020464991F839100843414979
:100EC000086049463F48623001F0F6FF41463D4820
:100ED000001D01F0F1FF4048D0F813023949886144
:100EE0003D4890F8491090F84A2090F84B3090F81F
:100EF0004D00CDE9023204910190374890F84E0040
:100F00000090354890F84F00A0F1640333A21421FB
:100F10000BA80EF0DFF90446601C28B9214637A063
:100F20000EF0C8F9002086E72B4890F8501090F892
:100F3000512090F8523090F85400CDE902320491DB
:100F40000190254890F855000090234890F85600ED
:100F5000A0F1640321A2142106A80EF0BBF90446F7
:100F6000601C28B9214625A00EF0A4F9002062E7F4
:100F700014220BA913483A30FFF763F9142206A98B
:100F800010484E30FFF75DF920210E4880F86110BF
:100F900080F84D104FF47A70B6FBF0F100FB116051
:100FA00010B94FF47A7005E04FF47A70B6FBF0F1A7
:100FB00000FB11608246034A02210BF0DDF901209B
:100FC00039E7000068600020006100202C0100204B
:100FD0006C660020AC660020F83D002032302530E1
:100FE00032642D253032642D253032642D25303287
:100FF000642D253032642D2530326400736E70729A
:10100000696E7466206572726F722C207468652038
:101010006C656E20697320256400000010B5002007
:101020000A498880C880088148817C2107480C30A3
:10103000FFF720F97C2105488830FFF71BF97C2158
:101040000348FFF717F9012010BD0000745D002070
:10105000785E00202DE9FE4F04460E4603F0C2F8EC
:10106000074600200290019014B1062E00DB17B94C
:101070000020BDE8FE8FA57894F803806078217881
:1010800040EA012945F6A520814534D1E81CB0424B
:1010900001D00020EDE7B8F1830F2CD160792179E0
:1010A00040EA012AA07940064FEA106BE01D00904B
:1010B000BAF5805F19D1A81C215C681C205C41EA4C
:1010C00000200190A81C205C00F07F00029039797C
:1010D0009DF8080061F3DF1000F580500199884207
:1010E00008D102A801F062FE04E05A465046009979
:1010F00001F068FE00BF0120BBE7000001460A299D
:1011000001DD002070470148405CFBE7E93D00201D
:1011100010B50446204600F017F810BD014601291D
:1011200001DB00207047C1EB011000EB8000024A98
:1011300002EB8000401CF5E72761002001480078A1
:10114000704700008401002010B504460CB1002057
:1011500010BD102202490348FFF773F80148F7E772
:10116000973A0020DC3C0020014609B1002070477E
:1011700001480078FBE700003401002001460A29FD
:1011800001DD002070470148405CFBE7E73D00209F
:101190000146012901DB00207047C1EBC100024A72
:1011A00012F82000F8E70000F02E002001484079F6
:1011B00070470000E63D00200148007870470000BD
:1011C000E63D002001460648007E884201DC002002
:1011D000704765204843034A02EB8000F8E70000AF
:1011E000A6000020EC2F002010B53D484089401C8F
:1011F0003B4948814FF6FF70088108460088888087
:1012000008468088401EC880084680884FF47A715E
:1012100090FBF1F201FB120008B9084607E03048E4
:1012200080884FF47A7190FBF1F201FB120084B2D6
:101230002B4A0C32012120460BF09EF87C222849D3
:101240000C3101F1F800FEF7FCFF2548C0880028AA
:1012500019DD2348C0884FF47A7190FBF1F201FB4D
:10126000120008B9084607E01D48C0884FF47A719B
:1012700090FBF1F201FB120084B2194A883201217D
:1012800020460BF079F81648808820B900211548CF
:1012900002F0BEF822E01248808801280FD11249DE
:1012A0000F480C3001F0AAFF0D4841894FF4FC5063
:1012B00009F0F6FE00210C4802F0AAF80EE00B49F6
:1012C00007480C3001F09AFF054841894FF4F85067
:1012D00009F0E6FE0021054802F09AF8012010BD51
:1012E000745D0020B8050020A405002090050020B2
:1012F00070B5044640E038484089401C3649488172
:101300000846808808810846C08888800846C088CA
:10131000401EC8807C220C3101F1F800FEF791FFDD
:101320007C222D498831A1F17C00FEF78AFF2A48F2
:10133000C08800281FDD28484089B0F57A7F1ADA76
:101340002548C0884FF47A7190FBF1F201FB12003E
:1013500008B9084607E02048C0884FF47A7190FB2E
:10136000F1F201FB120085B21B4A883201212846A6
:101370000BF002F800E004E0201EA4F10101CCB261
:10138000B9D100BF1448C08820B113484089B0F5D6
:101390007A7F0FDB114910480C3001F02FFF0E4807
:1013A00041894FF4FC5009F07BFE00210B4802F00C
:1013B0002FF80EE00A4908480C3001F01FFF0648DC
:1013C00041894FF4F85009F06BFE0021044802F007
:1013D0001FF8012070BD0000745D0020A4050020EE
:1013E0009005002070B5044652E045484089401EF3
:1013F0004349488108468088C8800846008988801B
:101400007C220C3101F17C00FEF71BFF7C223D4960
:10141000A1F1F800FEF715FF39480089002823DD07
:10142000374800893649096888421DD83448008900
:10143000401C33490881084600894FF47A7190FBBB
:10144000F1F201FB120008B9084607E02C480089B8
:101450004FF47A7190FBF1F201FB120085B2294A38
:10146000012128460AF088FF2548008928B1244830
:1014700000892349096888420AD923480078401C1A
:101480002149087000201E4908810120488104E09C
:10149000201EA4F10101CCB2A7D100BF1A480078E8
:1014A00002280DD11648008950B9002017498870CC
:1014B0000021174801F0ACFF0020134908701CE020
:1014C0000F4880884FF6FF71884207D100200F49EE
:1014D000887000210E4801F09BFF0EE00D4908487E
:1014E0000C3001F08BFE064841894FF4F85009F0AA
:1014F000D7FD0021074801F08BFF012070BD0000DF
:10150000745D0020785E0020280300202403002062
:10151000740300209005002002460A2A01DD002005
:1015200070470248815400BFFAE70000E93D0020FF
:1015300010B50020FFF7F2FD044694F8EB0018B94F
:1015400001200449087002E00020024908700120CF
:1015500010BD0000340100200246032900DA0AB160
:1015600000207047014801700120FAE73401002093
:1015700001460B48007E884201DC0020704721B9FB
:101580000020084A1070084A107000220548401CCC
:101590004254801C42540A3042540120EEE70000BD
:1015A000A6000020E63D00208401002010B501289F
:1015B00000DB10BDC0EBC002054B03F82210002277
:1015C000C0EBC003024C04EB83031A7600BFF0E7C4
:1015D000F02E002010B5FFF7ABFF10BD014602480A
:1015E0004171012070470000E63D002010B513480E
:1015F00007F080FD12490860084600681149096833
:10160000401A40F6B83188420FD20D4800680D49A3
:1016100008600D480078401CC0B20B4908700328D0
:101620000ADB00200870012010BD0548006805494C
:1016300008600020044908700020F5E70000002041
:10164000180300201C0300201403002070B5054679
:101650000C4616460CB9002070BD03210648817661
:101660006178207841EA00210348C16100210348E4
:1016700001F0CEFE0120EFE7F83D002060030020DE
:1016800038B50446614A08214FF4FA6007F0D6FCE9
:101690005F48807E012800D038BD6A465DA1604861
:1016A00006F01AFBBDF8000000B1F5E74FF48071B9
:1016B0005C4802F08CFD554A0821642007F0BEFC0E
:1016C0004FF40061574802F080FD4FF480515548B7
:1016D00002F07BFD4D4A0821FA2007F0AFFC4FF4E1
:1016E0008071504802F073FD484A0821642007F0D9
:1016F000A5FC4FF400614B4802F067FD4FF48051A8
:10170000484802F062FD414A0821FA2007F096FCA1
:101710007BE0FFF74BFD98BB01F008FA3B4807F070
:10172000E9FC414908600020FFF7E8FC012828D0C7
:101730003E480078042824D03B4800683C490968AA
:1017400088420BD33848006839490968401A39493A
:10175000884201D301200EE000200CE034480068EC
:10176000C0F1FF303049096808443249884201D34A
:10177000012000E00020002841D00CF011FA3EE0EA
:1017800004E0294800682A49086038E00020FFF793
:10179000F5FC012833D1284804F096FFC0B10020A1
:1017A0002649087004F098F90020FFF717FF0BF0A6
:1017B000A9FD164A08214FF47A7007F03FFC134A3E
:1017C00008214FF4FA6007F039FC04F093FC16E0AE
:1017D0001A480078401CC0B21849087003280EDD72
:1017E000002008700CF0DCF90020FFF7F7FE0BF08A
:1017F00089FD064A08214FF47A7007F01FFC034A5E
:1018000008214FF47A7007F019FC82E700000020ED
:101810000061002073656E646D757465780000006A
:101820000C2F002000080140F8000020F83D0020A7
:10183000FC000020C0270900382F0020F7000020FE
:1018400070B588B006460025182101A8FEF712FDE4
:101850009A4A08214FF4FA6007F0F0FB0CF0DCFB29
:1018600007AB142296A1994806F05CFCBDF81C0059
:1018700028B193A196A00DF01DFD08B070BD994848
:10188000807E012800D0F8E700240DE08B4807F0A7
:1018900031FC954941F82400084650F8240093494A
:1018A00041F82400601CC4B29148007EA042EDDCE7
:1018B00002E1002407E0814807F01CFC8A4941F856
:1018C0002400601CC4B28A48007EA042F3DC884831
:1018D000007E00B900BF4FF47A704FF4C373854A9D
:1018E00001A90090794810F0BFF800287FD1019835
:1018F0000A287CD17E48007E012823D10020FFF7F2
:101900003DFC012819D1FFF751FC012804D1794889
:1019100005990BF0C9FA09E0059881B275480DF0F8
:1019200055FC18B170480068704908604FF4C371E5
:101930007048FEF79FFC00BF59E06E4805990BF018
:10194000B3FA54E06B4805990BF0AEFA00244AE074
:1019500065206043684901EB800090F89001012800
:101960003FD1002165206043634A02EB800080F88C
:10197000901104BB61480068401C60490860652202
:1019800062435D4B03EB8202B2F88E116522624323
:1019900003EB820202F108000DF018FCE8B1524896
:1019A00050F82400514941F8240055480068401C73
:1019B0005349086011E0652060434F4901EB800006
:1019C000007A682809D101210846FFF7A5FD46489D
:1019D00050F82400454941F824000020494941F8C5
:1019E0002400601CC4B24248007EA042B0DC002447
:1019F0005EE02046FFF7C2FB012851D13C48007E43
:101A0000012812DD3F4850F82400401C3D4941F8B0
:101A100024000D2809D3002041F824002CB900230C
:101A20001A4619461E2010F05FF92F4850F824007E
:101A30002E4951F8241088420ED32B4850F8240028
:101A40002A4951F82410401A4EF66021884201D3E9
:101A5000012011E000200FE0234850F82400234922
:101A600051F82410C1F1FF3108444EF6602188423C
:101A700001D3012000E00020C0B1FFF797FBA8B917
:101A8000194850F82400194941F824002046FFF76E
:101A90006FFD5CB91C480068401C1B49086005E0EC
:101AA000114850F82400114941F82400601CC4B2C8
:101AB0000F48007EA0429CDCFBE6000000000020F6
:101AC00034472073656E64206D710000143300206C
:101AD0004F535143726561746520257320466169D7
:101AE0006C000000006100201C0100201401002097
:101AF000A600002044330020EC2F00200401002029
:101B0000000100200C0100200801002070B588B001
:101B10000646182101A8FEF7ADFB0020FFF7FEFAEC
:101B200005460024AE4A08214FF4FA6007F086FA11
:101B3000AC48807E012801D008B070BD07AB1422EC
:101B4000A9A1AC4806F0EEFABDF81C0020B1A6A190
:101B5000A9A00DF0AFFBEFE741E14FF47A700A2343
:101B6000AA4A01A90090A3480FF07EFF00286FD178
:101B7000FFF71CFB012806D1994A08214FF47A701F
:101B800007F05CFA2BE10398202870D2DFE800F020
:101B900010959526956152586C7073787D82958367
:101BA0008436956669579595959595959595858D06
:101BB000FFF702FB012810D10020FFF7DFFA012810
:101BC0000BD1049848B90499C8B20DF035FB904880
:101BD000007E012801DD0DF0B1FA6FE0FFF7ECFAAD
:101BE00001280AD10020FFF7C9FA012805D104987D
:101BF00018B90499C8B20DF026FB5FE0049890B9BB
:101C00000499C8B201210CF06DFE0499C8B20121FB
:101C1000FFF7CCFC0499C8B20DF0E0FA0499C8B201
:101C200000210DF01AFB7A48007E012801DD0CF03E
:101C300071FF43E00499C8B20DF0E5FA3EE03DE0E3
:101C4000049820B90122294600200AF0A1F935E0C4
:101C500035E00499C8B20DF0E4FA2FE00DF0DFFA98
:101C60002CE00DF0E5FA29E003F050FE26E024E038
:101C70000DF0E0FA22E00499C8B20DF0C1FA1DE0BF
:101C80000499C8B20DF0B5FA18E00499C8B20DF085
:101C9000E1FA13E012E011E010E05D48007E012857
:101CA00002DD00200BF042FB08E05948007E0128CD
:101CB00002DD01200BF03AFB00E000BF00BFFFF7A0
:101CC00075FA012806D1464A08214FF47A7007F0C8
:101CD000B5F984E000247CE0FFF76EFA01280AD110
:101CE0002046FFF74BFA012805D114B90DF092FAFE
:101CF00001E00DF043F94648007E012827DD454804
:101D000000684549096888420CD342480068424946
:101D10000968401A42F21071884201D301200FE095
:101D200000200DE03C480068C0F1FF3039490968E7
:101D3000084442F21071884201D3012000E00020E3
:101D400028B134480068344908600BF033FB0024A4
:101D50003BE02046FFF71CFA012814D1FFF72CFACC
:101D6000012824D10020FFF709FA01281FD1002003
:101D7000FFF7C4F901281AD1CCB900222946204620
:101D80000AF006F913E0164807F0B4F9C4EBC401F1
:101D9000224A02EB81014860C4EBC400114601EB0A
:101DA00080004068C4EBC40102EB81018860FFF74A
:101DB00003FA012807D12046FFF7E0F9012802D1F4
:101DC0002046FFF79BF9601CC4B2012CC1DB601CEC
:101DD000C4B20F48007EA0423FF77EAF00BFBCE612
:101DE000000000200061002034472073656E6420ED
:101DF0006D710000243700204F53514372656174A8
:101E000065202573204661696C000000543700206E
:101E1000A60000202401002028010020F02E002030
:101E200088B000200690079000BF00BF18216846C8
:101E3000FEF720FA09F02EFA09F0F2FB412009F032
:101E400043FA664A0821642007F0F8F8C5E0FFF776
:101E5000ADF9012806D1614A08214FF47A7007F0E4
:101E6000EDF8BAE002F0BEF904465C4A08216420AD
:101E700007F0E4F810F0C6FA5948007A01284CD16E
:101E80005848844202D05848844246D15748807E00
:101E900001282CD10DF0F6FC00283ED054485549BD
:101EA0000A6802604A684260098901810020FFF7E0
:101EB00025F9012806D100231A4619460B200FF0F8
:101EC00013FF00E000BF40214B4802F080F9434A75
:101ED0000821642007F0B2F84021474802F075F964
:101EE0003E4A082140F6B83007F0A8F815E010F097
:101EF0003BFB90B14021404802F069F9374A082184
:101F0000642007F09BF840213B4802F05EF9334A19
:101F1000082140F6B83007F091F83148007A0228DD
:101F20005AD13248807E01282FD100200DF044F98B
:101F3000012851D10DF0A6FC00284DD00A222D49D0
:101F40002B48FEF7BBF930B90023042219460220C2
:101F500010F0AAF905E000231A46284918460FF0A8
:101F600031FD4021244802F032F91C4A0821642046
:101F700007F064F84021204802F027F9174A0821A9
:101F800040F6B83007F05AF826E01D48D0F81302A2
:101F90006421B0FBF1F5284610F0AEFDE0B1104829
:101FA000007898B94021144802F011F90B4A082131
:101FB000642007F043F840210F4802F006F9074A71
:101FC000082140F6B83007F039F805E000231A463A
:101FD0000C4918460FF0F6FC00BF38E7000000205F
:101FE000AC66002060030020A004002000610020F7
:101FF000A2660020B8660020001C014000040020FA
:10200000F83D00201404002008B50EF089FB6A4654
:102010000821642007F012F80EF013FC0DF0BEFB4F
:102020001FE0FFF7C3F8012806D10E4A08214FF43C
:102030007A7007F003F814E00FF0D4FB0EF0DCFB2D
:102040000DF09AFD02F016F90EF060FB06480EF056
:102050003DFA00F015FD034A0821012006F0EEFFCD
:1020600000BFDEE700000020F83D002000B58BB087
:102070000AA8032100220592CDE906210890142028
:10208000FA211922424BCDE90132CDE903101E207D
:102090000023404A40A10090424806F0DBFB0AA81A
:1020A000032100220592CDE90621089014209621F3
:1020B0000F223D4BCDE90132CDE90310062000236C
:1020C0003A4A3BA100903D4806F0C4FB0AA8032110
:1020D00000220592CDE90621089014204FF4AF713B
:1020E0002322374BCDE90132CDE90310072000232D
:1020F000344A35A10090374806F0ACFB0AA803210A
:1021000000220592CDE90621089014204FF4967123
:102110001E22314BCDE90132CDE903100820002306
:102120002E4A2FA10090314806F094FB0AA8032103
:1021300000220592CDE90621089014204FF4AF71DA
:1021400023222B4BCDE90132CDE9031003200023DC
:10215000284A29A100902B4806F07CFB0AA80321FD
:1021600000220592CDE90621089014204FF4FA715F
:102170003222254BCDE90132CDE903100A2000239C
:10218000224A23A10090254806F064FB0BB000BD55
:10219000040B0020211E000841707020436172640E
:1021A000000000004C0A0020A40F002009200008B5
:1021B000417070204368617267650000EC0E00207A
:1021C000B412002021220008417070204477696E0B
:1021D00000000000FC110020E41800208116000817
:1021E0004170702034474D61696E00002C1800204A
:1021F0004C1E002041180008417070203447526581
:1022000063760000941D00207C2400200D1B000834
:1022100041707020344753656E640000C423002071
:1022200030B589B005460024182103A8FEF722F82E
:10223000C04A08214FF47A7006F000FF0BF05CFFF3
:102240000FF020F809F01AFFBB48807E012801D169
:1022500009F014FF01AB1422B8A1BC4805F062FFDD
:10226000BDF8040028B1B5A1B9A00DF023F809B05C
:1022700030BDB04A08214FF47A7006F0DFFE0FF04F
:1022800053FE56E1FEF792FF01280AD12146B548D8
:1022900001F0BEF8A74A08214FF47A7006F0CEFE8E
:1022A00047E14FF4FA703223AF4A03A90090A748E0
:1022B0000FF0DAFB00287CD10398012846D00428CF
:1022C00007D0062876D10798C1B2A748FEF7C2FE0C
:1022D0000FE104B90DE1A5490698884217D0A44939
:1022E0000698884213D0A349069888420FD0A24985
:1022F000069888420BD0A1490698884207D0A04989
:102300000698884203D09F490698884216D197487C
:1023100084421AD09648844217D09648844214D0FA
:102320009548844211D0954884420ED002209649A7
:1023300088702146069801F06BF806E0002092496B
:1023400088702146069801F063F8D2E0059820B124
:10235000012830D0022878D178E08C48007860B12C
:102360007548807E012804D1894806F0A5F80CF054
:1023700083FF874806F0DAF81AE06F48807E01286C
:1023800009D1012100200CF0ADFA00231A461946AC
:1023900018460FF0A9FC4FF4F2737E4A0021092081
:1023A0000EF048FF40237C4A00210A200EF042FF35
:1023B0009CE09FE09CE07548007830B100207349B4
:1023C00008700121FFF7F2F83EE072481C307349B3
:1023D0000A6802608A888280897981715038D0F8D1
:1023E0005710C0F85B100698C1B26A48343880F8BC
:1023F00017125148807E012812D10BF011FB0023E7
:102400001A46194611200FF06FFC65490B686149A7
:10241000343991F8170210220021FEF7B9FC13E0BD
:102420005548A04206D0022057498870214651489D
:1024300000F0EEFF5A490B685649343991F81702FB
:1024400010220121FEF7A4FC50E04EE051481C3060
:1024500052490A6802608A888280897981710020E5
:1024600010F02EFC4B493439C1F85B000698C1B21C
:102470004848343880F817122F48807E012812D13E
:102480000BF0CEFA00231A46194611200FF02CFC4F
:1024900043490B683F49343991F817021022002153
:1024A000FEF776FC09E03E490B683A49343991F869
:1024B000170210220121FEF76BFC0FF06FFF0020C6
:1024C000324908704FF4F2713648FDF7D3FE4FF4ED
:1024D000F273344A002109200EF0ACFE40232E4A4C
:1024E00000210A200EF0A6FE00E000BF00BF00E0C1
:1024F00000BF00BF01F076FE04461CB1E06808B1E1
:10250000E068804720480088012804D1022002901A
:1025100002A800F04BFC1F49343908780FF09AFDEF
:102520000EF032FA0EF006FC0FF06CFD0FF034F9ED
:1025300000BFA7E600000020006100206477696EFC
:10254000207461736B206D7100000000DC6400205A
:102550004F5351437265617465202573204661694C
:102560006C0000002C05002070650020EC030020AA
:102570000004002014040020280400203C04002053
:10258000A00400201C06002024030020400000209E
:10259000020000202C3E00206C6600202400002059
:1025A000745D0020F562002008B5002500F0E4F914
:1025B0004FF4E1300BF036FE00F010FA00F0D4F9E1
:1025C0000646AD480068B6FBF0F7384606F0D8FD81
:1025D000684606F0BDF80BF0DBF901F0A1FA0EF049
:1025E0009BFD0120A5490870A5A00CF063FE90207A
:1025F0000EF02CF903F0E4FD43F63F0144F61F60B2
:102600000BF048FB03F012FB8F2109200BF072FB4B
:10261000FFF72CFDAA480068AA4908600846006830
:10262000000E096801F47F0140EA1120A5490988DC
:1026300001F47F4140EA0120A249097840EA0160A3
:10264000A04908609E48001D00689F490860084630
:102650000068000E096801F47F0140EA11209A49E0
:10266000098801F47F4140EA01209749097840EA4E
:1026700001609549086092480830006893490860F5
:1026800008460068000E096801F47F0140EA112045
:102690008E49098801F47F4140EA01208B4909787D
:1026A00040EA016089490860084603688648026874
:1026B0008448016886A00CF0FDFD8B4881490968BB
:1026C000016081490968416080490968816000BFF3
:1026D00006E08548405D10B9AA20834948556D1C25
:1026E0000C2DF6D341F66A01062003F06BFAC1E027
:1026F00003F088FA7D480068401C7C4908606A46FF
:102700000821642006F09AFC01F036F978488078B8
:10271000784908717648C078643088717448407888
:1027200048717548007888707348407848707248DE
:10273000807808707148D0F8A0007049D1F8A410D2
:1027400001446E48D0F8A00064225043B0FBF1F47D
:102750006B480068A04201DA694804606948D0F813
:10276000A0006849D1F8A41001446648D0F8A00040
:1027700064225043B0FBF1F463480068A04201DAE0
:10278000614804606148D0F8A0006049D1F8A41005
:1027900001445E48D0F8A00064225043B0FBF1F43D
:1027A0005B480068A04201DA594804605948D0F8F3
:1027B000A0005849D1F8A41001445648D0F8A00010
:1027C00064225043B0FBF1F453480068A04201DAA0
:1027D000514804605148D0F8A0005049D1F8A410E5
:1027E00001444E48D0F8A00064225043B0FBF1F4FD
:1027F0004B480068A04201DA494804604948D0F8D3
:10280000A0004849D1F8A41001444648D0F8A000DF
:1028100064225043B0FBF1F443480068A04201DA5F
:10282000414804604148D0F8A0004049D1F8A410C4
:1028300001443E48D0F8A00064225043B0FBF1F4BC
:102840003B480068A04201DA394804603948D0F8B2
:10285000A0003849D1F8A41001443648D0F8A000AF
:1028600064225043B0FBF1F433480068A04201DA1F
:10287000314804603CE700001034010840000020AB
:1028800053797374656D2052657365742020537994
:102890007374656D20526573657420205379737469
:1028A000656D2052657365742E2E2E2E2E2E2E2EC3
:1028B0002E2E2E2E2E2E2E2E2E2E2E2E2E0D0A00AB
:1028C000E8F7FF1F34000020380000203C00002003
:1028D0004D43552049643A253038782025303878E2
:1028E00020253038780A0000942E0020F8070020B8
:1028F0002C020020240000202802002004080020D0
:10290000040000204C0A002008000020EC0E0020EB
:102910000C000020FC110020100000202C180020CA
:1029200014000020941D002018000020C423002063
:102930001C0000204C2C00202000002010B5042199
:10294000064881760021C161022005498870002176
:10295000044800F05DFD012010BD0000F83D00209E
:10296000240300206003002000B585B0684609F00C
:10297000FFF8009805B000BD10B54FF4407005F0A9
:102980004BF810BD2DE9F04105460E4600271DE02D
:102990004FF00008002410E055F82410601C55F892
:1029A0002000814208D9621C05EB820105EB8400FE
:1029B0000BF06FF84FF00108641C701EC01BA042A2
:1029C000EADCB8F1000F00D103E07F1C701EB842B2
:1029D000DEDC00BFBDE8F08100BFFEE710B500F00F
:1029E0001FF800F019F810BD10B5002400BF00BF9B
:1029F000FDF7E0FB044600BF00BF1021054803F0CF
:102A0000ADFC00BF00BF2046FDF7D8FB00BF00BFF4
:102A100010BD0000187A002010B5FFF7E5FF10BDCB
:102A200010B500200249086000F00AF810BD00004F
:102A3000200700200149086070470000200700209F
:102A400010B5FFF791FF04460848006840F0807019
:102A5000064908600020064948600846006840F0C2
:102A6000010008602046FFF7E5FF10BDFCED00E027
:102A7000001000E00149486870470000001000E0C5
:102A800010B50E480078012815D10D480DF0F8F961
:102A9000012810D10B4A0821C82006F0CFFA0220E5
:102AA000064908720020087007488078022802D181
:102AB000002005498870012010BD0000AC66002090
:102AC000F83D0020000000202403002010B5002065
:102AD0000449086004230A46002105200EF0AAFBE1
:102AE000012010BD745D002070B506460C461546E9
:102AF0000CB1042D01D0002070BD20780006617853
:102B000040EA0140A17840EA0120E1780843064903
:102B1000C1F8220027230A46002101200EF08AFB7B
:102B200004F008FA0120E7E70061002010B500205A
:102B3000FEF724FB01280BD01E480078401CC0B2D1
:102B40001C490870072803DD002008700AF014F9FA
:102B5000FEF732FB012801D003F050FFFEF72CFBFB
:102B6000012801D0002010BD00241DE02046FEF702
:102B700005FB01280ED03CB90F48C28800F10801BE
:102B8000204603F01FFC05E042F248620BA12046FC
:102B900003F018FC2046FEF7F1FA012802D0204687
:102BA0000AF0DEF8601CC4B20348007EA042DDDCFF
:102BB0000120D8E7F6000020A60000203131342E95
:102BC00035352E3138362E32303600000146632935
:102BD00001DD002070470A2091FBF0F300FB131089
:102BE0000A2391FBF3F300EB0310C2B21046F1E7A6
:102BF00021B1026842F00102026004E002684FF66F
:102C0000FE731A40026070470021016041608160DC
:102C1000C160016141618161C161016241628162A2
:102C2000704710B50022026847F6F0739A430C6AA9
:102C30008B6823430C6923434C6923438C692343EA
:102C4000CC6923434C6A23438C6A23431A430260B2
:102C5000CB6843600B6883604B68C36010BD0000A5
:102C600001684FF6FE721140016000210160416071
:102C70008160C1604B49884208D14A490839496896
:102C800041F00F01474A083A51608AE04549143142
:102C9000884208D143490839496841F0F001414A66
:102CA000083A51607DE03F492831884208D13D49CA
:102CB0000839496841F470613A4A083A516070E055
:102CC00038493C31884208D136490839496841F4CD
:102CD0007041344A083A516063E0324950318842C9
:102CE00008D130490839496841F470212D4A083A21
:102CF000516056E02B496431884208D1294908398E
:102D0000496841F47001274A083A516049E0254971
:102D10007831884208D123490839496841F0706107
:102D2000204A083A51603CE01F49884206D1011F01
:102D3000096841F00F01021F116032E01A49143195
:102D4000884208D11849091F096841F0F001164A64
:102D5000121F116025E014492831884208D1124918
:102D6000091F096841F470610F4A121F116018E0D1
:102D70000D493C31884208D10B49091F096841F4CB
:102D80007041094A121F11600BE007495031884217
:102D900007D10549091F096841F47021024A121F31
:102DA00011607047080002400804024070B50546F3
:102DB00001F018FA04460CB9A06810B12846A168C1
:102DC000884770BD2DE9F04105460E4617460DB106
:102DD00006B117B90020BDE8F081002414E00C48CA
:102DE00030F83400A8420DD1094800EBC400406817
:102DF00040B1074800EBC4003A46314643682846D4
:102E00009847E8E7601CC4B2112CE8D30120E2E740
:102E10007C3201087047002107E0002201E0531CCA
:102E20009AB26E2AFBDB4B1C99B28142F5DB7047EC
:102E300037B5A4B0044601F0D5F9054615B9002010
:102E400027B030BD782106A8FDF714FA9DF894004C
:102E50009DF895109DF896209DF89830CDE90132A7
:102E6000CDE903109DF8990000909DF89A0000F2BA
:102E70006C7308A2782106A80CF02CFA217941F293
:102E8000050242EAC1101E2206A908F031F901200C
:102E9000D6E70000253034642D2D253032642D2DE9
:102EA000253032642D2D253032643A3A2530326493
:102EB0003A3A2530326400002DE9F04106460D46CD
:102EC000002401F08FF90746122D00DA17B900200F
:102ED000BDE8F081002417E004EB44000D4911F82F
:102EE0002000A8420ED104EB44000B4603EB800007
:102EF000028904EB440003EB800041683046FDF793
:102F0000A0F903E0601CC4B2122CE5DB00BF012075
:102F1000DEE70000A83001082DE9F04106460D4625
:102F2000002401F05FF90746122D00DA17B90020DE
:102F3000BDE8F081002417E004EB44000D4911F8CE
:102F40002000A8420ED104EB44000B4603EB8000A6
:102F5000027A04EB440003EB80004168304608F03D
:102F6000C7F803E0601CC4B2122CE5DB00BF0120EF
:102F7000DEE70000A830010837B5A4B0044601F030
:102F800031F9054615B9002027B030BD782106A8D3
:102F9000FDF770F99DF894009DF895109DF8962026
:102FA0009DF89830CDE90132CDE903109DF89900E4
:102FB00000909DF89A0000F26C730BA2782106A88D
:102FC0000CF088F91E2206A9204608F091F84FF669
:102FD000C07204EA0201303188B24FF6FF710AF084
:102FE000ADFB0120D0E70000253034642D253032C0
:102FF000642D2530326420253032643A2530326425
:103000003A253032640000002DE9F04106460D46B5
:10301000002401F0E7F80746152D00DA17B9002063
:10302000BDE8F081002417E004EB44000D4911F8DD
:103030002000A8420ED104EB44000B4603EB8000B5
:10304000028904EB440003EB800041683046FDF741
:10305000F8F803E0601CC4B2152CE5DB00BF0120CA
:10306000DEE700008031010810B56048807E01284D
:103070007ED10020FEF782F8B0B10020FEF73EF8C6
:1030800090B100205A4908700846007859490978DB
:1030900088421BD05648007856490870012142F2F8
:1030A000600007F0E9FF11E001205149087008466F
:1030B000007850490978884208D04D4800784D4939
:1030C0000870002142F2600007F0D6FFFEF736F8E4
:1030D00060B949480078012808D1002142F2500027
:1030E00007F0CAFF0020444908707CE0FEF726F88C
:1030F00018B1FEF723F8632812D100203C4948702C
:10310000084640783B49497888426CD03848407836
:1031100038494870002142F2500007F0ADFF62E0EC
:10312000FEF70CF8012811D1314948700846407863
:1031300030494978884256D02D4840782D4948700A
:10314000012142F2500007F097FF4CE0FDF7F6FF37
:10315000142814DA02202649487008464078254988
:10316000497888423FD0224840782249487000E0A0
:103170002FE0022142F2500007F07EFF33E0FDF71E
:10318000DDFF192812DA03201949487008464078F3
:1031900018494978884226D0154840781549487022
:1031A000032142F2500007F067FF1CE004201049A1
:1031B0004870084640780F494978884213D00C4837
:1031C00040780C494870042142F2500007F054FF47
:1031D00009E0C82142F2600007F04EFFC82142F228
:1031E000500007F049FF012010BD000000610020E1
:1031F00034030020360300203803002070B5044655
:103200000D467C216D48FDF735F8207C0006218AAB
:1032100001F47F4140EA0120216901F47F0140EA85
:103220001120216940EA1160644908600A2204F112
:103230006C016248001DFDF704F8142204F11C0122
:103240005E480E30FCF7FDFF207D0006A18A01F4E8
:103250007F4140EA0120616901F47F0140EA1120C9
:10326000616940EA1160554948620A2204F130015F
:1032700052482830FCF7E5FF50492068486308466B
:10328000D4F862108163D4F86610C163B4F86A1090
:10329000A0F84010423061680160A1684160A189D6
:1032A00001816421A069B0FBF1F000066422A169EC
:1032B000B1FBF2F101F47F4140EA0120A169B1FBC9
:1032C000F2F101F47F0140EA1120A169B1FBF2F1B2
:1032D00040EA11603949C86494F878000006B4F8EF
:1032E000781001F47F4140EA0120A16F01F47F01D1
:1032F00040EA1120A16F40EA1160304908651422AC
:1033000004F13A012D485430FCF79BFF142204F1DC
:103310004E012A486830FCF794FF297941F20102F6
:1033200042EAC1102222254907F0E2FE297941F242
:10333000120242EAC11004222049243107F0D8FECB
:10334000297941F2140242EAC1100A221B492831AC
:1033500007F0CEFE297941F2190242EAC110042297
:103360001649343107F0C4FE297941F21B0242EAC2
:10337000C1100A221149383107F0BAFE29794FF4F9
:10338000815242EAC1100E220C49423107F0B0FED0
:10339000297941F2270242EAC1100422074950313B
:1033A00007F0A6FE297941F2500242EAC110282214
:1033B0000249543107F09CFE012070BDF45E0020EC
:1033C0001CB50848016800918188ADF80410807927
:1033D0008DF806004FF44050DDE90012FFF7CCFDF8
:1033E00000201CBD240000201CB5044607480168CD
:1033F00000918188ADF8041080798DF80600204690
:10340000DDE90012FFF714FD00201CBD24000020A0
:1034100070B504460D4604B970BD05B125600C4871
:103420000460208A0B49088009490968087907F077
:103430001DFE07480068C06840B105480068C068C4
:10344000401C18B102490968C868804700BFE3E71B
:1034500020030020240300202DE9F04107460E46FA
:10346000144606B10CB9BDE8F08100F01DF8E11C6E
:10347000C8B202F063FE822002F060FE384602F01D
:1034800095FE002504E0705D02F058FE681CC5B290
:10349000A542F8DBFF2002F051FEFF2002F04EFEB5
:1034A00002F06EFE00BFDEE710B545F6A52002F083
:1034B0007DFE10BD014600BF080900EB8000420000
:1034C00001F00F001044C0B270470146002204E032
:1034D000501CC2B2A1F10A00C1B20A29F8DA1007E1
:1034E00041EA10607047000010B50121080708F09C
:1034F000FBFA012007F0E2FB012008F015FB002099
:1035000008F012FB012008F0B5FC00BF412008F0D4
:1035100093FC0028FAD04FF4807008F021FBFF20C4
:103520000D4908607F200D490860012008F012FB5A
:1035300000F054FA094800680949486006480068E4
:10354000886000200860084600F0E4F810B905A083
:103550000BF0B0FE10BD00003C020020380200203D
:10356000804B002045525443205072657363616C58
:10357000657220436F6E666967206661696C656479
:1035800021210D0A0000000008B500220092002051
:103590000021104A126802F04002CAB9421E0D4BC7
:1035A0001A6000BF0B4A126802F04001009A521CD8
:1035B0000092009AB2F5803F01D00029F2D0054A6E
:1035C000126802F040020AB1012002E0002000E08F
:1035D000012008BD0C2800400348006820F080004E
:1035E00001490860704700000C28004038B50546C6
:1035F0000C46002000901348006800901148001FFE
:1036000000681149084000900098000CE070009894
:10361000C0F304206070009800F03F00A070009894
:10362000C0F3423020705DB9E078FFF743FFE070EF
:103630006078FFF73FFF6070A078FFF73BFFA07056
:1036400038BD0000082800403FFFFF0038B50546A0
:103650000C4600200090144800680090124808387A
:1036600000681249084000900098C0F3054020709F
:103670000098C0F306206070009800F07F00A070F2
:10368000009800F48000000CE0705DB92078FFF72E
:1036900011FF20706078FFF70DFF6070A078FFF7D2
:1036A00009FFA07038BD0000082800407F7F7F0020
:1036B000CA22174B1A6053221A6091B1144A1C3A5D
:1036C000126820F004031A43114B1C3B1A60104A85
:1036D0001C32126800F004031A430D4B1C331A60AD
:1036E00011E00B4A1C3A126820F004039A43084B7D
:1036F0001C3B1A60064A1C32126800F004039A430D
:10370000034B1C331A60FF22014B1A607047000004
:103710002428004030B504460025CA201549086019
:1037200053200860FFF730FF00B91DE011481C3836
:10373000006820F040000F491C3908600846006806
:10374000216808430B491C3908600A491439A068EC
:10375000086008460068A18840EA0140054914391C
:103760000860FFF739FF0125FF200249086028465D
:1037700030BD00002428004008B50146002000901C
:1037800004480090009800EB8100009000980068C9
:1037900008BD0000502800402DE9F04105460C46C8
:1037A000002600274DB9607800F01000102804D1E1
:1037B000607820F010000A30607005B908E0607889
:1037C000FFF778FE0646A078FFF774FE064600BFB6
:1037D00055B1E0780004617840EA0120A1780843FF
:1037E000217840EA413611E0E078FFF76EFE4FEABB
:1037F00000486078FFF769FE48EA0028A078FFF7E4
:1038000064FE48EA0008207848EA4036CA20124997
:10381000086053200860FFF7B7FE08B9002714E0DE
:103820000E4830400C4920390860FFF7D5FE0A48A1
:103830001C38006800F0200030B900F0CFF808B95B
:10384000002702E0012700E00127FF20024908606D
:103850003846BDE8F0810000242800403FFFFF000B
:103860002DE9F04105460C46002600274DB92E48AB
:10387000006800F0400000B102E00020E07000BFEE
:103880000DE02948006800F0400020B12078FFF7E3
:1038900011FE064602E00020E07000BF00BF55B1F7
:1038A00020780004617840EA0120A1780843E1789B
:1038B00040EA014611E02078FFF707FE4FEA004892
:1038C0006078FFF702FE48EA0028A078FFF7FDFDC8
:1038D00048EA0008E07848EA0046CA2012491C314C
:1038E000086053200860FFF74FFE08B9002713E077
:1038F0000E4830400C4908390860FFF76DFE0A4851
:10390000006800F0200030B900F068F808B900271E
:1039100002E0012700E00127FF2003491C31086075
:103920003846BDE8F0810000082800407F7F7F0016
:1039300010B500200E49C87008200870102048708B
:10394000002088700120FFF78BFF052009490870CF
:1039500009208870072048702220C8700120FFF7D6
:103960001BFF43F2F221002000F068F810BD0000B8
:10397000280200202C02002010B504490020FFF787
:1039800035FE03490020FFF761FE10BD2C02002028
:10399000280200200EB502208DF8080001208DF8C5
:1039A0000B008DF8090000208DF80A0002A803F032
:1039B000FBFF4FF40010009001208DF8060000205E
:1039C0008DF8040008208DF80500684600F044F8E2
:1039D0000121C803FFF76CFE0EBD000008B50022F0
:1039E000009200200021CA22134B1A6053221A6051
:1039F000114A183A126822F0A0020F4B183B1A60C5
:103A000000BF0D4A183A126802F02001009A521CB9
:103A10000092009AB2F5003F01D00029F1D0064A89
:103A2000183A126802F020020AB1012000E00020DA
:103A3000FF22014B1A6008BD2428004008B500226F
:103A40000092044A0092009A02EB80020092009ACF
:103A5000116008BD50280040002123498279002AC6
:103A60003AD00A46126803689A430B461A600A1D48
:103A7000126803689A430B1D1A60027911440A68A0
:103A800003681A430A60184A0832126803689A43A6
:103A9000154B08331A601A1D126803689A43124BBB
:103AA0000C331A604279102A0ED11A1F126803686B
:103AB0001A430D4B08331A601A1D126803681A4323
:103AC000094B0C331A600DE00749427911440A682A
:103AD00003681A430A6005E0027911440A68036822
:103AE0009A430A60704700000004014070B5054623
:103AF0000C4616460CB9002070BD0121064881769F
:103B00006178207841EA00210348C161002103481F
:103B1000FFF77EFC0120EFE7F83D00206003002066
:103B200008B50020009010214E4800F050FB09F02D
:103B30003FFB09F02DFB0020009009F049FB09F044
:103B400053FA012802D109F09DFA0090009820F064
:103B5000FF00454988420DD044490098884209D069
:103B60000520FFF758F909F03FFA012802D109F0C2
:103B700089FA009000203E4908603C49491E00989F
:103B8000884204D14FF47E20394908605EE039490B
:103B90000098884207D14FF4FC2035490860012085
:103BA0003549087052E03349491C0098884206D0D4
:103BB000009820F470402D49491E884207D14FF4E7
:103BC0007E202B49086001202B4908703EE02949DE
:103BD0004C390098884207D14FF4FF1024490860FF
:103BE00001202549087031E0224943390098884274
:103BF00006D122481E49086001201F49087025E0AF
:103C0000009820F0FF001849884205D0009820F461
:103C100070401649884204D14FF4FF1014490860DF
:103C200014E0009820F0FF001549884206D0009863
:103C300020F470400D49491C884203D10F480C49BB
:103C4000086003E04FF4FF10094908600D4900982F
:103C5000884202D1094806490860002009F0B8FAF4
:103C600008BD00000008014000461F001530EF00AD
:103C7000040300208D25BF000803002000E03F0062
:103C800000471F0017405E0008B5684600F0A1FA23
:103C90000120ADF8000000208DF8030069460248BD
:103CA00000F004F808BD0000000801402DE9F041D3
:103CB000024600250026002000230024002791F85A
:103CC00003C00CF00F0591F803C00CF0100CBCF110
:103CD000000F03D091F802C04CEA050591F800C02E
:103CE000BCF1000F31D0146800202BE04FF0010C24
:103CF0000CFA00F3B1F800C00CEA03069E4220D192
:103D000083004FF00F0C0CFA03F7BC4305FA03FCD9
:103D10004CEA040491F803C0BCF1280F06D14FF01F
:103D2000010C0CFA00FCC2F814C00AE091F803C0C0
:103D3000BCF1480F05D14FF0010C0CFA00FCC2F8A1
:103D400010C0401C0828D1D31460B1F800C0BCF1E9
:103D5000FF0F34DD546800202EE000F1080C4FF016
:103D6000010808FA0CF3B1F800C00CEA03069E4201
:103D700021D183004FF00F0C0CFA03F7BC4305FA76
:103D800003FC4CEA040491F803C0BCF1280F05D1F0
:103D900000F1080C08FA0CF8C2F8148091F803C07E
:103DA000BCF1480F07D100F1080C4FF0010808FAE8
:103DB0000CF8C2F81080401C0828CED35460BDE82F
:103DC000F0810000F0B50446B4F1004F72D9002331
:103DD000002224F00045EB0905F07F052A0905F0D3
:103DE0000F05052B03D0970005FA07F603E05708E7
:103DF000BF0005FA07F6062B15D2DFE803F003052E
:103E0000080B0E11EA480FE0E948001D0CE0E848F5
:103E1000083009E0E6480C3006E0E548103003E0E1
:103E2000E348143000E000BF00BF5AB9052B04D1AD
:103E3000076827F0030707604AE0076827F00F07C5
:103E4000076045E0012A0BD1052B04D1076827F054
:103E50000C0707603CE0076827F0F007076037E0D1
:103E6000022A0BD1052B04D1076827F03007076021
:103E70002EE0076827F47067076029E0032A0BD15A
:103E8000052B04D1076827F0C007076020E007680A
:103E900027F4704707601BE0042A04D1076827F461
:103EA0007027076014E0052A05D1076827F470071A
:103EB00007600DE012E0062A04D1076827F070675A
:103EC000076005E0072A03D1076827F070470760FD
:103ED000012902D107683743076067E1B4F5406FF5
:103EE00077D020DC402C75D00CDC042C3FD004DCD7
:103EF000012C4ED0022C6ED138E0102C59D0202C41
:103F0000F9D169E0B4F5007F76D005DC802C77D05C
:103F1000B4F5807FEFD197E0B4F5407F6ED0B4F573
:103F2000006FE8D1C0E0B4F1807F68D011DCB4F557
:103F3000803F1ED006DCB4F5804F71D0B4F5004F41
:103F4000D9D115E0B4F5003F14D0B4F5802FD2D10B
:103F500011E0B4F1007F74D0B4F1806F72D0B4F18D
:103F6000884F70D0B4F1904FC5D10DE100BF00BFB4
:103F700000BF00BF00BF8E4820384068A0438C4A75
:103F8000203A5060012903D1104640682043506018
:103F90000BE1874820384068864A1040844A203A1E
:103FA0005060012904D11046406840F00100506083
:103FB000FBE07F482038406820F030007C4A203AFF
:103FC0005060012904D11046406840F01000506054
:103FD000EBE079E025E0E7E075482038406820F024
:103FE0003000734A203A5060012904D110464068DD
:103FF00040F020005060D8E036E001E044E083E08B
:104000006B482038406820F0C000694A203A506070
:10401000012904D11046406840F080005060C4E09F
:1040200062E063482038406820F0C000604A203ACF
:104030005060012904D11046406840F040005060B3
:10404000B3E071E080E08FE059482038406820F408
:104050004070574A203A5060012904D11046406808
:1040600040F480705060A0E051482038406820F44F
:1040700040704F4A203A5060012904D110464068F0
:1040800040F40070506090E049482038406820F4C7
:104090004070474A203A5060012904D110464068D8
:1040A00040F44070506080E041482038406820F47F
:1040B00040603F4A203A5060012904D110464068D0
:1040C00040F40060506070E039482038406820F4C7
:1040D0004060374A203A5060012904D110464068B8
:1040E00040F44060506060E031482038406820F47F
:1040F000C0402F4A203A5060012904D11046406840
:1041000040F48040506050E029482038406820F05A
:10411000E060274A203A5060012904D110464068E7
:1041200040F08070506040E021482038406820F026
:10413000E0601F4A203A5060012904D110464068CF
:1041400040F00070506030E019482038406820F09E
:10415000E060174A203A5060012904D110464068B7
:1041600040F08060506020E011482038C06920F0A5
:1041700040600F4A203AD061012904D11046C0693D
:1041800040F08060D06110E009482038C06920F01C
:104190004060074A203AD061012904D11046C06925
:1041A00040F00060D06100E000BF00BFF0BD000043
:1041B00020000140FEFFFF7F0246002093680B4075
:1041C0000BB1012000E000207047416170470161A0
:1041D00070474FF6FF710180022181700421C17088
:1041E000704700000148006870470000200300206D
:1041F0000146632901DD002070470A2091FBF0F39E
:1042000000FB13100A2391FBF3F300EB0310C2B27F
:104210001046F1E710B5104910480068FCF7E5F8C2
:104220000446FCF77DFA0E4908610E490E48006805
:10423000FCF7DBF80446FCF773FA094988810B495F
:104240000B480068FCF7D1F80446FCF769FA81B224
:104250000348C18110BD000000007A44D402002050
:10426000F83D00200000C842CC02002000002041A0
:10427000C802002070B5264804F03CFF25490860BC
:1042800025480068FCF779FA04460022234BFCF726
:104290009FFA38D22248016822480068FCF7B0FA39
:1042A00028D11C4800682049096888420CD3194865
:1042B00000681D490968401A4EF66021884201D302
:1042C00001200FE000200DE017480068C0F1FF302A
:1042D0001049096808444EF66021884201D3012044
:1042E00000E0002098B10120104981F8340001F06D
:1042F0009DFC0CE0074800680B490860084800680E
:104300000849086003E0034800680749086070BD79
:104310000000002014020020CC0200200000F03F2A
:10432000D40200200C02002018020020F83D0020DA
:1043300010B52A48007805281FD2DFE800F0030AEC
:1043400011181B000221002007F0A8FF2449086073
:1043500019E00221012007F0A1FF2249086012E0C4
:104360000221132007F09AFF1F4908600BE007F0B5
:104370004DFF08E007F0B6FF05E007F0B7FE0020AC
:104380001649087000BF00BF14480078401C13494C
:1043900008701348006840F6047188420BD1114838
:1043A000006841F28311884205D10F48006840F649
:1043B000FF71884210D001F039FC094801680BA058
:1043C0000AF078FF074801680FA00AF073FF06485B
:1043D000016814A00AF06EFF10BD0000FC0200206E
:1043E000600200206402002068020020746573747B
:1043F0005531365F535953434F4E44617461203DEC
:104400002025780A20000000746573745531365FEA
:10441000454D55434F4E44617461203D2025780A37
:1044200020000000746573745531365F454D554367
:104430004F4E3244617461203D2025780A200000EF
:1044400070B50024002517E06006040E01200C4919
:1044500008600A200CF06CFA00200A49C1F8A0019B
:104460000A200CF065FA064888380068012801D156
:1044700044F00104681CC5B2082DE5DB204670BD80
:10448000A08121420080214210B50446204600F060
:1044900001F810BD70B505462E4600241AE08020B4
:1044A0002041304018B101200C49086002E0002092
:1044B0000A49086001200949091D08600A200CF01A
:1044C00037FA00200649C1F8A0010A200CF030FAA2
:1044D000601CC4B2082CE2DB70BD00009C8121424C
:1044E0000080214270B5044644F080052846FFF75D
:1044F000D1FF70BD10B50020094908600A200CF0FA
:1045000017FAEA20FFF7C6FFDC20FFF7C3FF012000
:104510000449C1F8A4010A200CF00AFA10BD0000F9
:10452000A48121420080214210B500200949086081
:104530000A200CF0FDF9EA20FFF7ACFFE520FFF7B9
:10454000A9FF01200449C1F8A4010A200CF0F0F9E8
:1045500010BD0000A48121420080214270477047B5
:104560007047704770477047704770477047704793
:104570007047704770477047704770477047704783
:104580007047704770477047704770477047704773
:104590007047704770477047704770477047704763
:1045A00070477047704700002DE9F041CCB00546D8
:1045B0000F46144604F10F001FFA80F8002607B1D9
:1045C0001CB900204CB0BDE8F0817D208DF80400BE
:1045D000D0208DF8050008F0FF008DF806004FEAA6
:1045E00018208DF8070000208DF808008DF80900CC
:1045F0008DF80A008DF80B00254800788DF80C0026
:1046000023480088000A8DF80D0021480068000C3E
:104610008DF80E001E480068000E8DF80F00E8B2FD
:104620008DF81100280A8DF81000224639460DF148
:104630001200FBF706FE04F10E0081B201A80CF097
:10464000AFFF04F10E0101AA5054481C82B201A927
:10465000002001F041FF04F10F010EA00AF02AFE34
:10466000002606E001A8815D0FA00AF023FE701C61
:1046700086B204F10F00B042F4DC0DA00AF01AFE7D
:1046800003480068401C0249086001209AE70000C6
:104690005C01002048592D54786C656E3A25642CD5
:1046A000446174613A000000253032582000000057
:1046B0000D0A000010B50446207804281AD00528F9
:1046C00004D006281DD007282BD122E0FCF78EFF4E
:1046D00078B101201449887000211448FEF798FE33
:1046E000134A0821322004F0A9FC962164200DF021
:1046F0006BFE17E001200C498870002002F02AFDB3
:1047000010E0012008498870FCF788FCFCF76CFD7C
:1047100008E001200449887006490748FEF778FE42
:1047200000E000BF00BF10BD2403002050040020A3
:104730000000002074030020CC05002010B50446C2
:104740002078022808D100200549887005490868AA
:104750000021FEF75DFE00E000BF00BF10BD0000BD
:10476000240300202804002010B5044620780228E5
:1047700008D1002005498870054908680021FEF726
:1047800047FE00E000BF00BF10BD00002403002072
:104790003C0400200178012905D0032902D0042916
:1047A00009D104E000BF0021044A917004E0002117
:1047B000024A917000E000BF00BF70472403002050
:1047C00010B50446207804281FD006DC01280BD041
:1047D00002280DD0032846D112E00F2819D0102846
:1047E00025D011283FD130E00020204988703BE0DF
:1047F0001F48FEF7F9FD00211D48FEF709FE33E0D2
:1048000000211C48FEF704FE2EE0002002F0A2FC6E
:104810002AE001201849887602F08CFB174A08210B
:104820004FF4FA6004F00AFC09F0BAF91CE0022027
:104830001149887602F07EFB104A08214FF4FA6095
:1048400004F0FCFB09F0ACF90EE003200A4988767D
:1048500002F070FB094A08214FF4FA6004F0EEFB05
:1048600009F09EF900E000BF00BF10BD2403002046
:104870007804002050040020006100200000002087
:1048800010B50446207806281CD006DC01280BD081
:1048900002280DD0032842D10FE007281DD0082898
:1048A00029D012283BD134E000201E49887037E01F
:1048B00000211D48FEF7ACFD32E000211B48FEF749
:1048C000A7FD2DE0FEF702F9194A08214FF4FA601E
:1048D00004F0B4FB09F064F922E001201549C87620
:1048E00002F028FB124A08214FF4FA6004F0A6FBFC
:1048F00009F056F914E000200E49C87602F01AFBC0
:104900000B4A08214FF4FA6004F098FB09F048F9CB
:1049100006E00F2141F2057007F09CFB00E000BFAC
:1049200000BF10BD24030020640400208C0400207C
:10493000000000200061002010B504462078012806
:1049400002D0022809D103E000200549887005E063
:1049500000210448FEF75CFD00E000BF00BF10BD71
:10496000240300207804002010B50446207806288F
:104970001FD006DC032809D004280AD005283CD122
:104980000FE007281DD00F2837D122E0FDF7D6FF12
:1049900034E002201A49887000211A48FEF738FDD9
:1049A0002CE002201649887000211748FEF730FDE0
:1049B00024E002201249887000211448FEF728FDE7
:1049C0001CE002200E49887000211148FEF720FDEE
:1049D00014E0FCF70BFE78B1012009498870002132
:1049E0000C48FEF715FD0C4A0821322004F026FB86
:1049F000962164200DF0E8FC00E000BF00BF10BD70
:104A000024030020B4040020C8040020DC0400209B
:104A1000F0040020500400200000002010B50446DF
:104A200020780A2820D006DC022809D008280FD0D8
:104A300009282BD112E00B281CD00E2826D11FE00C
:104A400000201449887000211348FEF7E1FC1EE0A5
:104A5000032141F68D0006F023FB18E0062141F604
:104A60008D0006F01DFB12E0092141F68D0006F0D5
:104A700017FB0CE00C2141F68D0006F011FB06E05F
:104A8000012141F68D0007F0E5FA00E000BF00BF0C
:104A900010BD000024030020A004002010B504462F
:104AA00020780A2820D006DC022809D008280FD058
:104AB00009282BD112E00B281CD00E2826D11FE08C
:104AC00000201449887000211348FEF7A1FC1EE065
:104AD000052141F60D1006F0E3FA18E00A2141F62F
:104AE0000D1006F0DDFA12E00F2141F60D1006F070
:104AF000D7FA0CE0142141F60D1006F0D1FA06E0C9
:104B0000012141F60D1007F0A5FA00E000BF00BF3B
:104B100010BD000024030020A004002010B50446AE
:104B200020780A2820D006DC022809D008280FD0D7
:104B300009282BD112E00B281CD00E2826D11FE00B
:104B400000201449887000211348FEF761FC1EE024
:104B50001E2141F68D1006F0A3FA18E03C2141F623
:104B60008D1006F09DFA12E05A2141F68D1006F0E4
:104B700097FA0CE0782141F68D1006F091FA06E0E4
:104B8000012141F68D1007F065FA00E000BF00BF7B
:104B900010BD000024030020A004002010B504462E
:104BA000207805280AD1FCF721FD30B10120054904
:104BB000887000210448FEF72BFC00E000BF00BF16
:104BC00010BD0000240300205004002010B504464E
:104BD00020780A2820D006DC022809D008280FD027
:104BE00009282BD112E00B281CD00E2826D11FE05B
:104BF00000201449887000211348FEF709FC1EE0CC
:104C0000062141F60D2006F04BFA18E00C2141F682
:104C10000D2006F045FA12E0122141F60D2006F0B3
:104C20003FFA0CE0172141F60D2006F039FA06E0B4
:104C3000012141F60D2007F00DFA00E000BF00BF92
:104C400010BD000024030020A004002010B504467D
:104C50002078022805D1044908680021FEF7D8FB16
:104C600000E000BF00BF10BD7804002010B504466E
:104C70002078012804D0022806D012280ED107E09F
:104C80000020084988700AE000200649887006E084
:104C90000F2141F6053007F0DDF900E000BF00BF4D
:104CA00010BD00002403002010B50446207802281F
:104CB00005D1044908680021FEF7AAFB00E000BF07
:104CC00000BF10BD7804002010B5044620780228EB
:104CD00005D1044908680021FEF79AFB00E000BFF7
:104CE00000BF10BD7804002010B5044620780528C8
:104CF00013D1FCF77BFC78B10120094988700021B1
:104D00000848FEF785FB084A0821322004F096F98E
:104D1000962164200DF058FB00E000BF00BF10BDDD
:104D20002403002050040020000000200178012905
:104D300003D10021024A917000E000BF00BF70471C
:104D40002403002010B504462078012804D002284E
:104D500006D004280CD107E000200749887008E03D
:104D6000012002F0F7F904E0022002F0F3F900E07C
:104D700000BF00BF10BD00002403002010B5044692
:104D80002078012802D0022808D103E0002005493C
:104D9000887004E0012002F0DDF900E000BF00BFF0
:104DA00010BD00002403002010B50446207804281C
:104DB00009D005280CD10120074988700749084807
:104DC000FEF726FB05E005490648FEF721FB00E05B
:104DD00000BF00BF10BD0000240300209C03002082
:104DE00050040020C403002010B504462078062893
:104DF00018D2DFE800F01703070B0F1300200B4950
:104E0000887010E00120FCF7EDFA0CE00120FCF7BF
:104E10006FFA08E00A20FCF7E5FA04E00A20FCF744
:104E200067FA00E000BF00BF10BD000024030020AF
:104E300010B504462078012804D0022806D00328A3
:104E40000CD107E000200749887008E00120FCF73A
:104E5000C9FA04E00A20FCF7C5FA00E000BF00BF71
:104E600010BD0000240300200178012902D002298E
:104E700008D103E00021054A917004E00021034AB3
:104E8000917000E000BF00BF7047000024030020C5
:104E90000178012902D0022908D103E00021054A46
:104EA000917004E00021034A917000E000BF00BF50
:104EB00070470000240300200178012902D0022954
:104EC00008D103E00021054A917004E00021034A63
:104ED000917000E000BF00BF704700002403002075
:104EE0000178012902D0022908D103E00021054AF6
:104EF000917004E00021034A917000E000BF00BF00
:104F000070470000240300200178012902D0022903
:104F100008D103E00021054A917004E00021034A12
:104F2000917000E000BF00BF704700002403002024
:104F30000178012902D0022908D103E00021054AA5
:104F4000917004E00021034A917000E000BF00BFAF
:104F500070470000240300200178012902D00229B3
:104F600008D103E00021054A917004E00021034AC2
:104F7000917000E000BF00BF7047000024030020D4
:104F80007047000010B504462078022805D1044976
:104F900008680021FEF73CFA00E000BF00BF10BD2A
:104FA000C403002010B504462078022805D1044926
:104FB00008680021FEF72CFA00E000BF00BF10BD1A
:104FC000D803002010B504462078022808D100201C
:104FD00005498870054908680021FEF719FA00E0C4
:104FE00000BF00BF10BD000024030020EC03002020
:104FF00010B504462078022808D1002005498870A1
:10500000054908680021FEF703FA00E000BF00BF71
:1050100010BD0000240300200004002010B5044649
:105020002078022808D100200549887005490868C1
:105030000021FEF7EDF900E000BF00BF10BD000049
:10504000240300201404002010B560210348FBF75E
:1050500011F960210248FBF70DF910BD7C3C0020DE
:105060002E3900202DE9F04107460E4600243D462A
:1050700035E02878682803D000202870BDE8F0814A
:1050800095F801801848A978017018A00AF012F963
:10509000002405E0295D19A00AF00CF9601CC4B2D7
:1050A000B442F7DB17A00AF005F9002413E0164814
:1050B00030F8340040450CD1134800EBC400406880
:1050C00030B1114800EBC400012142680648904706
:1050D00003E0601CC4B2022CE9DB00BF0026052EF1
:1050E000C7DC0120CAE70000EC3C002048592D52E3
:1050F000784C3A446174613A00000000253032581F
:10510000200000000D0A0000D42F01082DE9F04115
:105110000546C84EC84C15B10020BDE8F081C7480F
:10512000007804280AD1392084F848003921492020
:1051300001554A2001554B20015561E0BF4890F8C8
:10514000170270B1BD4890F81702142809D0BB4867
:1051500090F817020C2804D0B84890F817020D28D0
:105160000AD1312084F848003021492001554A20D5
:1051700001554B20015543E0B04890F817020E2826
:1051800004D0AE4890F817020F280BD1312084F8D4
:1051900048003021492001554A20015531214B203A
:1051A00001552DE0A54890F8170206280BD13320B1
:1051B00084F848003021492001554A200155332107
:1051C0004B2001551CE09D4890F817020B280BD18D
:1051D000312084F848003021492001554A200155EA
:1051E00044214B2001550BE0332084F84800302146
:1051F0004920015533214A20015542214B200155B8
:10520000102231462046FBF71CF8022020746574FA
:1052100020228B4904F11200FBF713F8202084F8B8
:105220003200864991F84F106439C8B2FEF7E0FFAA
:1052300033210855814991F84E00FEF7D9FF3421FA
:1052400008557E4991F84D00FEF7D2FF35210855EB
:105250007A4991F84B00FEF7CBFF36210855774984
:1052600091F84A00FEF7C4FF37210855734991F8B9
:105270004900FEF7BDFF382108557048D0F85B1093
:10528000D0F85700081AC4F84200202084F83A00E9
:105290006A4991F856106439C8B2FEF7A9FF3B215C
:1052A0000855664991F85500FEF7A2FF3C210855C4
:1052B000624991F85400FEF79BFF3D2108555F4974
:1052C00091F85200FEF794FF3E2108555B4991F892
:1052D0005100FEF78DFF3F210855584991F85000C5
:1052E000FEF786FF402108555448D0F81302642188
:1052F000B0FBF1F05349C1F81A004E48801EC07E41
:1053000001280AD14D48C089C8834C48C0890A2168
:1053100090FBF1F04B49088413E04B4948684B4936
:10532000FBF763F80746FBF7FBF94649C883464994
:1053300008684649FBF759F80746FBF7F1F9414978
:10534000088400203F4981F826003C48D0F8130229
:105350006421B0FBF1F03B49C1F83D003548801EA7
:10536000C07E012808D1354800690A21B0FBF1F060
:105370003449C1F845000AE03349C8683449FBF7AD
:1053800034F80746FBF7CCF92E49C1F845002B4805
:10539000D0F845000A21B0FBF1F0E0642748D0F8CE
:1053A000450020662548D0F813026421B0FBF1F0D7
:1053B000A0652248D0F87310D0F8770001441F4848
:1053C000D0F87B0001441D48D0F87F00084442F229
:1053D0001071B0FBF1F0A06619481538C07984F857
:1053E0006D001C480078012803D1002084F8EB00F0
:1053F00002E0012084F8EB000121284609F072FA4E
:10540000154803F077FEC5EBC501144A02EB810194
:105410004860C5EBC500114601EB80008068C5EB14
:10542000C50102EB81014860EC220349CA20FFF765
:10543000BBF872E602610020A3380020F83D00208E
:10544000873A0020223800208849002000002041AF
:105450000000C8423401002000000020F02E00208F
:105460002DE9F04105460E4617462C460DB1EC2EAF
:1054700002D20020BDE8F0812FB1EC222946722033
:10548000FFF792F8F6E794F84800392816D149203A
:10549000005D392812D14A20005D39280ED14B20F9
:1054A000005D39280AD1312084F848003021492094
:1054B00001554A20015531214B200155EC22294646
:1054C000CA20FFF771F8D5E770B5B2B00546C8211C
:1054D0006846FAF7CFFE534E15B1002032B070BDCA
:1054E0000020FBF70BFE012801D00020F6E74E4814
:1054F00090F8361090F8370041EA00214A4890F8B9
:10550000380041EA0041484890F8390041EA006417
:1055100055214648FAF7AEFE102231464348FAF7C5
:1055200090FE42480574C0F851404148B4FBF0F089
:105530003030C1B23D48C1753D48B4FBF0F100FBCD
:1055400011443C48B4FBF0F03030C1B2374801762A
:105550003848B4FBF0F100FB11443748B4FBF0F0DD
:105560003030C1B2314841763348B4FBF0F100FB32
:1055700011443248B4FBF0F03030C1B22B48817690
:105580002E48B4FBF0F100FB11442D48B4FBF0F0C1
:105590003030C1B22548C1762948B4FBF0F100FB98
:1055A000114442F21070B4FBF0F03030C1B21F4829
:1055B000017742F21070B4FBF0F100FB11444FF49C
:1055C0007A70B4FBF0F03030C1B2184841774FF434
:1055D0007A70B4FBF0F100FB11446420B4FBF0F0EE
:1055E0003030C1B2114881776420B4FBF0F100FB88
:1055F00011440A20B4FBF0F03030C1B20B48C1773F
:105600000A20B4FBF0F100FB114404F13000C1B2F8
:10561000064880F82010552201462220FEF7C4FFDC
:105620005CE70000026100206C660020DB3900208E
:1056300000CA9A3B00E1F5058096980040420F00B1
:10564000A086010070B55D4C0020FBF757FD0128D6
:1056500001D0002070BD81215948FAF70BFE1022BD
:1056600021465748FAF7EDFD0120554908740020FE
:1056700048740220887453480078042802D102201C
:10568000C87418E04F480078062802D14C49C87405
:1056900011E04C480078052803D107204849C87418
:1056A00009E048480078012802D14549C87402E061
:1056B00000204349C8744248C07C022877D1414841
:1056C000D0F813026421B0FBF1F03D49C1F81A0093
:1056D0003A48801EC07E012814D13A4800690A2148
:1056E000B0FBF1F03649C1F845003648C089A1F851
:1056F0002700344880890A2190FBF1F03049A1F855
:105700002D001EE03049C8683049FAF76EFE0546A4
:10571000FBF706F82A49C1F845002B4948682C498F
:10572000FAF763FE0546FAF7FBFF2549C8832649C9
:1057300008682749FAF759FE0546FAF7F1FF2049AC
:10574000088400201E4981F826001E48D0F8130264
:105750006421B0FBF1F01A49C1F83D001948D0F8B6
:1057600045000A21B0FBF1F01549C1F8390008469F
:10577000C08B098C48430A2190FBF1F01049C1F815
:105780007D00202213490E485030FAF75AFD0D488B
:10579000D0F845000A49C1F8790000200DF090FAD0
:1057A0000849D1F85710401A0549C1F8350081223F
:1057B00003496820FEF7F8FE4CE700000261002074
:1057C00022380020F83D0020884900200000C8420F
:1057D00000002041873A002010B5002453E02C48F7
:1057E00000EB0410806800B94BE02A4803F082FC0B
:1057F000274901EB04110860254800EB04100068FC
:10580000234901EB04114968884212D3204800EB78
:10581000041000681E4901EB04114968401A1C4934
:1058200001EB04118968884201D3012015E00020B2
:1058300013E0174800EB04100068154901EB041150
:105840004968C1F1FF310844114901EB041189682D
:10585000884201D3012000E0002088B10C4800EB11
:10586000041000680A4901EB04114860084800EB85
:105870000410C06820B1064901EB0411C8688047D4
:1058800000BF601CC4B2022CA9DB012010BD0000C7
:10589000380100200000002010B50020FBF72EFC8E
:1058A000012804D00CA009F005FD002010BD6820DF
:1058B0000F49087004204870432088700020C87089
:1058C000087148710BA009F0F5FC06220849002078
:1058D00000F002FE00BFE9E77765696661736F6EED
:1058E0006778696E74616F3132313331340D0A007B
:1058F000600100206661736F6E6778696E74616F16
:105900003135313631370D0A0000000010B59AB03C
:105910001048007818B10F480078042802DD0020F4
:105920001AB010BD0B4800788DF8040060220A49B7
:105930000DF10500FAF785FC06480078012101EB1E
:10594000C000C4B2224601A94FF4A460FEF72CFEA9
:10595000E6E7000035010020FC3A002010B50446BF
:1059600000BF1222024940F21E50FEF71DFE10BD7C
:10597000310100203EB50020FBF7C0FB012801D11A
:1059800000203EBD1EA009F095FC68208DF80000A7
:1059900001208DF8010033208DF8020001208DF8E0
:1059A000030006208DF8040000208DF80500192062
:1059B0008DF8060098208DF8070017208DF8080054
:1059C00083208DF8090000208DF80A008DF80B0067
:1059D00010A009F06FFC002406E01DF8041012A0CE
:1059E00009F068FC601CC4B20C2CF6DB10A009F0B6
:1059F00061FC0C226946002000F06EFD00BFC0E78C
:105A00006661736F6E677A687563653738390D0A3A
:105A10000000000048592D7A6875616E67626961FF
:105A20006E68616F3A000000253032582000000097
:105A30000D0A000070B50446154D0CB1002070BD74
:105A400014480078042808D13020134948743021C4
:105A500011488174C174017507E039200E494874FA
:105A600039210D488174C1740175102229460A48F4
:105A7000FAF7E7FB08480474202208491530FAF7C2
:105A8000E0FB352204490820FEF78EFDD7E7000031
:105A900002610020F83D0020AA370020873A00204C
:105AA00070B50446094D102229460948FAF7C9FB8A
:105AB00007480474202207491130FAF7C2FB31224B
:105AC00003490C20FEF770FD70BD0000026100204C
:105AD000DF370020873A002070B504460A4D1022B7
